{
  "_format": "hh3-artifact-1",
  "contractName": "Campaign",
  "sourceName": "contracts/Campaign.sol",
  "abi": [
    {
      "inputs": [
        {
          "internalType": "address",
          "name": "_owner",
          "type": "address"
        },
        {
          "internalType": "string",
          "name": "_title",
          "type": "string"
        },
        {
          "internalType": "uint256",
          "name": "_goalWei",
          "type": "uint256"
        },
        {
          "internalType": "uint64",
          "name": "_deadlineTs",
          "type": "uint64"
        },
        {
          "internalType": "string",
          "name": "_metaDataURI",
          "type": "string"
        },
        {
          "internalType": "uint256",
          "name": "_minimumContribution",
          "type": "uint256"
        }
      ],
      "stateMutability": "nonpayable",
      "type": "constructor"
    },
    {
      "inputs": [],
      "name": "ReentrancyGuardReentrantCall",
      "type": "error"
    },
    {
      "anonymous": false,
      "inputs": [
        {
          "indexed": true,
          "internalType": "uint256",
          "name": "id",
          "type": "uint256"
        },
        {
          "indexed": true,
          "internalType": "address",
          "name": "voter",
          "type": "address"
        },
        {
          "indexed": false,
          "internalType": "uint256",
          "name": "weight",
          "type": "uint256"
        }
      ],
      "name": "Approved",
      "type": "event"
    },
    {
      "anonymous": false,
      "inputs": [
        {
          "indexed": true,
          "internalType": "address",
          "name": "from",
          "type": "address"
        },
        {
          "indexed": false,
          "internalType": "uint256",
          "name": "value",
          "type": "uint256"
        }
      ],
      "name": "Contributed",
      "type": "event"
    },
    {
      "anonymous": false,
      "inputs": [
        {
          "indexed": true,
          "internalType": "uint256",
          "name": "id",
          "type": "uint256"
        }
      ],
      "name": "Finalized",
      "type": "event"
    },
    {
      "anonymous": false,
      "inputs": [
        {
          "indexed": true,
          "internalType": "address",
          "name": "to",
          "type": "address"
        },
        {
          "indexed": false,
          "internalType": "uint256",
          "name": "value",
          "type": "uint256"
        }
      ],
      "name": "Refunded",
      "type": "event"
    },
    {
      "anonymous": false,
      "inputs": [
        {
          "indexed": true,
          "internalType": "uint256",
          "name": "id",
          "type": "uint256"
        },
        {
          "indexed": false,
          "internalType": "string",
          "name": "description",
          "type": "string"
        },
        {
          "indexed": false,
          "internalType": "uint256",
          "name": "amount",
          "type": "uint256"
        },
        {
          "indexed": false,
          "internalType": "address",
          "name": "recipient",
          "type": "address"
        }
      ],
      "name": "RequestCreated",
      "type": "event"
    },
    {
      "inputs": [
        {
          "internalType": "uint256",
          "name": "_id",
          "type": "uint256"
        }
      ],
      "name": "approveRequest",
      "outputs": [],
      "stateMutability": "nonpayable",
      "type": "function"
    },
    {
      "inputs": [],
      "name": "contribute",
      "outputs": [],
      "stateMutability": "payable",
      "type": "function"
    },
    {
      "inputs": [
        {
          "internalType": "address",
          "name": "",
          "type": "address"
        }
      ],
      "name": "contributions",
      "outputs": [
        {
          "internalType": "uint256",
          "name": "",
          "type": "uint256"
        }
      ],
      "stateMutability": "view",
      "type": "function"
    },
    {
      "inputs": [],
      "name": "contributorCount",
      "outputs": [
        {
          "internalType": "uint256",
          "name": "",
          "type": "uint256"
        }
      ],
      "stateMutability": "view",
      "type": "function"
    },
    {
      "inputs": [
        {
          "internalType": "string",
          "name": "_description",
          "type": "string"
        },
        {
          "internalType": "uint256",
          "name": "_amount",
          "type": "uint256"
        },
        {
          "internalType": "address payable",
          "name": "_recipient",
          "type": "address"
        }
      ],
      "name": "createRequest",
      "outputs": [],
      "stateMutability": "nonpayable",
      "type": "function"
    },
    {
      "inputs": [],
      "name": "deadlineTs",
      "outputs": [
        {
          "internalType": "uint64",
          "name": "",
          "type": "uint64"
        }
      ],
      "stateMutability": "view",
      "type": "function"
    },
    {
      "inputs": [
        {
          "internalType": "uint256",
          "name": "_id",
          "type": "uint256"
        }
      ],
      "name": "finalizeRequest",
      "outputs": [],
      "stateMutability": "nonpayable",
      "type": "function"
    },
    {
      "inputs": [
        {
          "internalType": "uint256",
          "name": "_id",
          "type": "uint256"
        }
      ],
      "name": "getRequest",
      "outputs": [
        {
          "internalType": "string",
          "name": "description",
          "type": "string"
        },
        {
          "internalType": "uint256",
          "name": "amount",
          "type": "uint256"
        },
        {
          "internalType": "address",
          "name": "recipient",
          "type": "address"
        },
        {
          "internalType": "uint256",
          "name": "approvalCount",
          "type": "uint256"
        },
        {
          "internalType": "bool",
          "name": "complete",
          "type": "bool"
        }
      ],
      "stateMutability": "view",
      "type": "function"
    },
    {
      "inputs": [],
      "name": "getSummary",
      "outputs": [
        {
          "internalType": "address",
          "name": "_owner",
          "type": "address"
        },
        {
          "internalType": "string",
          "name": "_title",
          "type": "string"
        },
        {
          "internalType": "uint256",
          "name": "_goalWei",
          "type": "uint256"
        },
        {
          "internalType": "uint64",
          "name": "_deadlineTs",
          "type": "uint64"
        },
        {
          "internalType": "string",
          "name": "_metaDataURI",
          "type": "string"
        },
        {
          "internalType": "uint256",
          "name": "_totalRaised",
          "type": "uint256"
        },
        {
          "internalType": "uint256",
          "name": "_contributorCount",
          "type": "uint256"
        },
        {
          "internalType": "uint256",
          "name": "_requestCount",
          "type": "uint256"
        },
        {
          "internalType": "uint256",
          "name": "_minimumContribution",
          "type": "uint256"
        }
      ],
      "stateMutability": "view",
      "type": "function"
    },
    {
      "inputs": [],
      "name": "goalMet",
      "outputs": [
        {
          "internalType": "bool",
          "name": "",
          "type": "bool"
        }
      ],
      "stateMutability": "view",
      "type": "function"
    },
    {
      "inputs": [],
      "name": "goalWei",
      "outputs": [
        {
          "internalType": "uint256",
          "name": "",
          "type": "uint256"
        }
      ],
      "stateMutability": "view",
      "type": "function"
    },
    {
      "inputs": [
        {
          "internalType": "uint256",
          "name": "_id",
          "type": "uint256"
        },
        {
          "internalType": "address",
          "name": "_approver",
          "type": "address"
        }
      ],
      "name": "hasApproved",
      "outputs": [
        {
          "internalType": "bool",
          "name": "",
          "type": "bool"
        }
      ],
      "stateMutability": "view",
      "type": "function"
    },
    {
      "inputs": [],
      "name": "isEnded",
      "outputs": [
        {
          "internalType": "bool",
          "name": "",
          "type": "bool"
        }
      ],
      "stateMutability": "view",
      "type": "function"
    },
    {
      "inputs": [],
      "name": "metaDataURI",
      "outputs": [
        {
          "internalType": "string",
          "name": "",
          "type": "string"
        }
      ],
      "stateMutability": "view",
      "type": "function"
    },
    {
      "inputs": [],
      "name": "minimumContribution",
      "outputs": [
        {
          "internalType": "uint256",
          "name": "",
          "type": "uint256"
        }
      ],
      "stateMutability": "view",
      "type": "function"
    },
    {
      "inputs": [],
      "name": "owner",
      "outputs": [
        {
          "internalType": "address",
          "name": "",
          "type": "address"
        }
      ],
      "stateMutability": "view",
      "type": "function"
    },
    {
      "inputs": [],
      "name": "refund",
      "outputs": [],
      "stateMutability": "nonpayable",
      "type": "function"
    },
    {
      "inputs": [
        {
          "internalType": "uint256",
          "name": "",
          "type": "uint256"
        }
      ],
      "name": "requests",
      "outputs": [
        {
          "internalType": "string",
          "name": "description",
          "type": "string"
        },
        {
          "internalType": "uint256",
          "name": "amount",
          "type": "uint256"
        },
        {
          "internalType": "address payable",
          "name": "recipient",
          "type": "address"
        },
        {
          "internalType": "uint256",
          "name": "approvalCount",
          "type": "uint256"
        },
        {
          "internalType": "bool",
          "name": "complete",
          "type": "bool"
        }
      ],
      "stateMutability": "view",
      "type": "function"
    },
    {
      "inputs": [],
      "name": "title",
      "outputs": [
        {
          "internalType": "string",
          "name": "",
          "type": "string"
        }
      ],
      "stateMutability": "view",
      "type": "function"
    },
    {
      "inputs": [],
      "name": "totalRaised",
      "outputs": [
        {
          "internalType": "uint256",
          "name": "",
          "type": "uint256"
        }
      ],
      "stateMutability": "view",
      "type": "function"
    }
  ],
  "bytecode": "0x60a060405234801561000f575f5ffd5b50604051611c27380380611c2783398101604081905261002e9161018b565b60015f8190556001600160a01b03871660805261004b86826102c6565b506003849055600480546001600160401b0319166001600160401b038516179055600261007883826102c6565b506007819055806100e35760405162461bcd60e51b815260206004820152602b60248201527f4d696e696d756d20636f6e747269627574696f6e206d7573742062652067726560448201526a061746572207468616e20360ac1b606482015260840160405180910390fd5b505050505050610380565b634e487b7160e01b5f52604160045260245ffd5b5f82601f830112610111575f5ffd5b81516001600160401b0381111561012a5761012a6100ee565b604051601f8201601f19908116603f011681016001600160401b0381118282101715610158576101586100ee565b60405281815283820160200185101561016f575f5ffd5b8160208501602083015e5f918101602001919091529392505050565b5f5f5f5f5f5f60c087890312156101a0575f5ffd5b86516001600160a01b03811681146101b6575f5ffd5b60208801519096506001600160401b038111156101d1575f5ffd5b6101dd89828a01610102565b604089015160608a0151919750955090506001600160401b0381168114610202575f5ffd5b60808801519093506001600160401b0381111561021d575f5ffd5b61022989828a01610102565b9250505f60a08801519050809150509295509295509295565b600181811c9082168061025657607f821691505b60208210810361027457634e487b7160e01b5f52602260045260245ffd5b50919050565b601f8211156102c157805f5260205f20601f840160051c8101602085101561029f5750805b601f840160051c820191505b818110156102be575f81556001016102ab565b50505b505050565b81516001600160401b038111156102df576102df6100ee565b6102f3816102ed8454610242565b8461027a565b6020601f821160018114610325575f831561030e5750848201515b5f19600385901b1c1916600184901b1784556102be565b5f84815260208120601f198516915b828110156103545787850151825560209485019460019092019101610334565b508482101561037157868401515f19600387901b60f8161c191681555b50505050600190811b01905550565b60805161187a6103ad5f395f818161027f015281816103d60152818161075e0152610c3b015261187a5ff3fe60806040526004361061011b575f3560e01c8063937e09b11161009d578063c5c4744c11610062578063c5c4744c1461035d578063d15f2d6014610372578063d7bb99ba14610387578063d7d1bbdb1461038f578063ecfd8928146103ae575f5ffd5b8063937e09b1146102b9578063a4fd6f56146102ce578063b8087ac0146102ee578063be1e969814610307578063c58343ef1461033e575f5ffd5b8063590e1ae3116100e3578063590e1ae3146101f75780637e0a930f1461020b57806381d12c581461021f5780638a9cfd551461024f5780638da5cb5b1461026e575f5ffd5b8063034410061461011f5780632358d5a8146101405780634051ddac1461017457806342e94c901461019d5780634a79d50c146101d6575b5f5ffd5b34801561012a575f5ffd5b5061013e610139366004611345565b6103c3565b005b34801561014b575f5ffd5b5061015f61015a366004611370565b6106e7565b60405190151581526020015b60405180910390f35b34801561017f575f5ffd5b50610188610751565b60405161016b999897969594939291906113cc565b3480156101a8575f5ffd5b506101c86101b7366004611441565b60086020525f908152604090205481565b60405190815260200161016b565b3480156101e1575f5ffd5b506101ea6108d9565b60405161016b9190611463565b348015610202575f5ffd5b5061013e610965565b348015610216575f5ffd5b506101ea610b4e565b34801561022a575f5ffd5b5061023e610239366004611345565b610b5b565b60405161016b959493929190611475565b34801561025a575f5ffd5b5061013e6102693660046114da565b610c30565b348015610279575f5ffd5b506102a17f000000000000000000000000000000000000000000000000000000000000000081565b6040516001600160a01b03909116815260200161016b565b3480156102c4575f5ffd5b506101c860075481565b3480156102d9575f5ffd5b506004546001600160401b031642101561015f565b3480156102f9575f5ffd5b50600354600554101561015f565b348015610312575f5ffd5b50600454610326906001600160401b031681565b6040516001600160401b03909116815260200161016b565b348015610349575f5ffd5b5061023e610358366004611345565b610e7c565b348015610368575f5ffd5b506101c860055481565b34801561037d575f5ffd5b506101c860035481565b61013e610f93565b34801561039a575f5ffd5b5061013e6103a9366004611345565b6110ea565b3480156103b9575f5ffd5b506101c860065481565b6103cb61131d565b336001600160a01b037f0000000000000000000000000000000000000000000000000000000000000000161461041c5760405162461bcd60e51b8152600401610413906115a0565b60405180910390fd5b600954811061043d5760405162461bcd60e51b8152600401610413906115e1565b6004546001600160401b0316421015801561045c575060035460055410155b6104ce5760405162461bcd60e51b815260206004820152603a60248201527f43616d706169676e206d757374206265207375636365737366756c20616e642060448201527f656e64656420746f2066696e616c697a652072657175657374730000000000006064820152608401610413565b5f600982815481106104e2576104e261160d565b5f9182526020909120600690910201600481015490915060ff16156105195760405162461bcd60e51b815260040161041390611621565b47816001015411156105815760405162461bcd60e51b815260206004820152602b60248201527f4e6f7420656e6f7567682062616c616e636520746f2066696e616c697a65207460448201526a1a1a5cc81c995c5d595cdd60aa1b6064820152608401610413565b60026005546105909190611677565b8160030154116105f85760405162461bcd60e51b815260206004820152602d60248201527f4e6f7420656e6f75676820617070726f76616c7320746f2066696e616c697a6560448201526c081d1a1a5cc81c995c5d595cdd609a1b6064820152608401610413565b60048101805460ff191660019081179091556002820154908201546040515f926001600160a01b031691908381818185875af1925050503d805f8114610659576040519150601f19603f3d011682016040523d82523d5f602084013e61065e565b606091505b50509050806106af5760405162461bcd60e51b815260206004820152601c60248201527f5472616e7366657220746f20726563697069656e74206661696c6564000000006044820152606401610413565b60405183907f839cf22e1ba87ce2f5b9bbf46cf0175a09eed52febdfaac8852478e68203c763905f90a250506106e460015f55565b50565b6009545f90831061070a5760405162461bcd60e51b8152600401610413906115e1565b6009838154811061071d5761071d61160d565b5f91825260208083206001600160a01b03861684526005600690930201919091019052604090205460ff1690505b92915050565b5f60605f5f60605f5f5f5f7f0000000000000000000000000000000000000000000000000000000000000000600160035460045f9054906101000a90046001600160401b031660026005546006546009805490506007548780546107b490611696565b80601f01602080910402602001604051908101604052809291908181526020018280546107e090611696565b801561082b5780601f106108025761010080835404028352916020019161082b565b820191905f5260205f20905b81548152906001019060200180831161080e57829003601f168201915b5050505050975084805461083e90611696565b80601f016020809104026020016040519081016040528092919081815260200182805461086a90611696565b80156108b55780601f1061088c576101008083540402835291602001916108b5565b820191905f5260205f20905b81548152906001019060200180831161089857829003601f168201915b50505050509450985098509850985098509850985098509850909192939495969798565b600180546108e690611696565b80601f016020809104026020016040519081016040528092919081815260200182805461091290611696565b801561095d5780601f106109345761010080835404028352916020019161095d565b820191905f5260205f20905b81548152906001019060200180831161094057829003601f168201915b505050505081565b61096d61131d565b6004546001600160401b03164210156109c85760405162461bcd60e51b815260206004820152601960248201527f43616d706169676e206973207374696c6c206f6e676f696e67000000000000006044820152606401610413565b60035460055410610a135760405162461bcd60e51b815260206004820152601560248201527410d85b5c185a59db8819dbd85b081dd85cc81b595d605a1b6044820152606401610413565b335f9081526008602052604090205480610a6f5760405162461bcd60e51b815260206004820152601a60248201527f4e6f20636f6e747269627574696f6e7320746f20726566756e640000000000006044820152606401610413565b335f818152600860205260408082208290555190919083908381818185875af1925050503d805f8114610abd576040519150601f19603f3d011682016040523d82523d5f602084013e610ac2565b606091505b5050905080610b0c5760405162461bcd60e51b81526020600482015260166024820152751499599d5b99081d1c985b9cd9995c8819985a5b195960521b6044820152606401610413565b60405182815233907fd7dee2702d63ad89917b6a4da9981c90c4d24f8c2bdfd64c604ecae57d8d06519060200160405180910390a25050610b4c60015f55565b565b600280546108e690611696565b60098181548110610b6a575f80fd5b905f5260205f2090600602015f91509050805f018054610b8990611696565b80601f0160208091040260200160405190810160405280929190818152602001828054610bb590611696565b8015610c005780601f10610bd757610100808354040283529160200191610c00565b820191905f5260205f20905b815481529060010190602001808311610be357829003601f168201915b50505050600183015460028401546003850154600490950154939491936001600160a01b03909116925060ff1685565b336001600160a01b037f00000000000000000000000000000000000000000000000000000000000000001614610c785760405162461bcd60e51b8152600401610413906115a0565b6004546001600160401b03164210158015610c97575060035460055410155b610d095760405162461bcd60e51b815260206004820152603860248201527f43616d706169676e206d757374206265207375636365737366756c20616e642060448201527f656e64656420746f2063726561746520726571756573747300000000000000006064820152608401610413565b5f8211610d665760405162461bcd60e51b815260206004820152602560248201527f5265717565737420616d6f756e74206d75737420626520677265617465722074604482015264068616e20360dc1b6064820152608401610413565b47821115610dc65760405162461bcd60e51b815260206004820152602760248201527f5265717565737420616d6f756e74206578636565647320636f6e74726163742060448201526662616c616e636560c81b6064820152608401610413565b6009805460019081018083555f928352610de091906116ce565b90505f60098281548110610df657610df661160d565b5f9182526020909120600690910201905080610e12868261172d565b50600181018490556002810180546001600160a01b0319166001600160a01b03851617905560405182907ff7365309cb3a1c4835d32acd2153ebf718723e270daad5bb2aac6dd47564583b90610e6d908890889088906117e7565b60405180910390a25050505050565b60605f5f5f5f6009805490508610610ea65760405162461bcd60e51b8152600401610413906115e1565b5f60098781548110610eba57610eba61160d565b5f91825260209091206006909102016001810154600282015460038301546004840154845494955085946001600160a01b039093169260ff909116908590610f0190611696565b80601f0160208091040260200160405190810160405280929190818152602001828054610f2d90611696565b8015610f785780601f10610f4f57610100808354040283529160200191610f78565b820191905f5260205f20905b815481529060010190602001808311610f5b57829003601f168201915b50505050509450955095509550955095505091939590929450565b6004546001600160401b03164210610fe25760405162461bcd60e51b815260206004820152601260248201527110d85b5c185a59db881a185cc8195b99195960721b6044820152606401610413565b60075434101561104e5760405162461bcd60e51b815260206004820152603160248201527f436f6e747269627574696f6e206d757374206265206174206c65617374206d696044820152703734b6bab6a1b7b73a3934b13aba34b7b760791b6064820152608401610413565b335f9081526008602052604081205490036110785760068054905f61107283611819565b91905055505b335f9081526008602052604081208054349290611096908490611831565b925050819055503460055f8282546110ae9190611831565b909155505060405134815233907f62722348256371b5147820d6cad90c40fd2da1ccee18c3ed52c0bca5a61dbbab9060200160405180910390a2565b600954811061110b5760405162461bcd60e51b8152600401610413906115e1565b5f6009828154811061111f5761111f61160d565b5f918252602080832033845260089091526040909220546006909102909101915061118c5760405162461bcd60e51b815260206004820152601d60248201527f4f6e6c7920636f6e7472696275746f72732063616e20617070726f76650000006044820152606401610413565b335f90815260058201602052604090205460ff16156111fc5760405162461bcd60e51b815260206004820152602660248201527f596f75206861766520616c726561647920617070726f76656420746869732072604482015265195c5d595cdd60d21b6064820152608401610413565b600481015460ff16156112215760405162461bcd60e51b815260040161041390611621565b6004546001600160401b03164210158015611240575060035460055410155b6112b25760405162461bcd60e51b815260206004820152603960248201527f43616d706169676e206d757374206265207375636365737366756c20616e642060448201527f656e64656420746f20617070726f7665207265717565737473000000000000006064820152608401610413565b335f8181526005830160209081526040808320805460ff1916600117905560088252918290205460038501805482019055915182815291929185917f7060996319a743911fa38fcb4f926382972b1bcd6abeea1bd65adeb620d5dfdf910160405180910390a3505050565b60025f540361133f57604051633ee5aeb560e01b815260040160405180910390fd5b60025f55565b5f60208284031215611355575f5ffd5b5035919050565b6001600160a01b03811681146106e4575f5ffd5b5f5f60408385031215611381575f5ffd5b8235915060208301356113938161135c565b809150509250929050565b5f81518084528060208401602086015e5f602082860101526020601f19601f83011685010191505092915050565b6001600160a01b038a168152610120602082018190525f906113f09083018b61139e565b8960408401526001600160401b03891660608401528281036080840152611417818961139e565b9150508560a08301528460c08301528360e0830152826101008301529a9950505050505050505050565b5f60208284031215611451575f5ffd5b813561145c8161135c565b9392505050565b602081525f61145c602083018461139e565b60a081525f61148760a083018861139e565b6020830196909652506001600160a01b0393909316604084015260608301919091521515608090910152919050565b634e487b7160e01b5f52604160045260245ffd5b80356114d58161135c565b919050565b5f5f5f606084860312156114ec575f5ffd5b83356001600160401b03811115611501575f5ffd5b8401601f81018613611511575f5ffd5b80356001600160401b0381111561152a5761152a6114b6565b604051601f8201601f19908116603f011681016001600160401b0381118282101715611558576115586114b6565b60405281815282820160200188101561156f575f5ffd5b816020840160208301375f6020928201830152945085013592506115979050604085016114ca565b90509250925092565b60208082526021908201527f4f6e6c79206f776e65722063616e2063616c6c20746869732066756e6374696f6040820152603760f91b606082015260800190565b602080825260129082015271125b9d985b1a59081c995c5d595cdd08125160721b604082015260600190565b634e487b7160e01b5f52603260045260245ffd5b60208082526022908201527f526571756573742068617320616c7265616479206265656e2066696e616c697a604082015261195960f21b606082015260800190565b634e487b7160e01b5f52601160045260245ffd5b5f8261169157634e487b7160e01b5f52601260045260245ffd5b500490565b600181811c908216806116aa57607f821691505b6020821081036116c857634e487b7160e01b5f52602260045260245ffd5b50919050565b8181038181111561074b5761074b611663565b601f82111561172857805f5260205f20601f840160051c810160208510156117065750805b601f840160051c820191505b81811015611725575f8155600101611712565b50505b505050565b81516001600160401b03811115611746576117466114b6565b61175a816117548454611696565b846116e1565b6020601f82116001811461178c575f83156117755750848201515b5f19600385901b1c1916600184901b178455611725565b5f84815260208120601f198516915b828110156117bb578785015182556020948501946001909201910161179b565b50848210156117d857868401515f19600387901b60f8161c191681555b50505050600190811b01905550565b606081525f6117f9606083018661139e565b6020830194909452506001600160a01b0391909116604090910152919050565b5f6001820161182a5761182a611663565b5060010190565b8082018082111561074b5761074b61166356fea2646970667358221220a9ae7c0ad155da22efa468ddbad54efd84e13bcb272776a2c3b5acdaa21e913764736f6c634300081c0033",
  "linkReferences": {},
  "deployedLinkReferences": {},
  "immutableReferences": {
    "124": [
      {
        "length": 32,
        "start": 639
      },
      {
        "length": 32,
        "start": 982
      },
      {
        "length": 32,
        "start": 1886
      },
      {
        "length": 32,
        "start": 3131
      }
    ]
  },
  "inputSourceName": "project/contracts/Campaign.sol",
  "buildInfoId": "solc-0_8_28-caab7156f14a5579365c4e5764b4013a26b467a0"
}