{
  "_format": "hh3-artifact-1",
  "contractName": "Campaign",
  "sourceName": "contracts/Campaign.sol",
  "abi": [
    {
      "inputs": [
        {
          "internalType": "address",
          "name": "_owner",
          "type": "address"
        },
        {
          "internalType": "string",
          "name": "_title",
          "type": "string"
        },
        {
          "internalType": "uint256",
          "name": "_goalWei",
          "type": "uint256"
        },
        {
          "internalType": "uint64",
          "name": "_deadlineTs",
          "type": "uint64"
        },
        {
          "internalType": "string",
          "name": "_metaDataURI",
          "type": "string"
        }
      ],
      "stateMutability": "nonpayable",
      "type": "constructor"
    },
    {
      "inputs": [],
      "name": "ReentrancyGuardReentrantCall",
      "type": "error"
    },
    {
      "anonymous": false,
      "inputs": [
        {
          "indexed": true,
          "internalType": "uint256",
          "name": "id",
          "type": "uint256"
        },
        {
          "indexed": true,
          "internalType": "address",
          "name": "voter",
          "type": "address"
        },
        {
          "indexed": false,
          "internalType": "uint256",
          "name": "weight",
          "type": "uint256"
        }
      ],
      "name": "Approved",
      "type": "event"
    },
    {
      "anonymous": false,
      "inputs": [
        {
          "indexed": true,
          "internalType": "address",
          "name": "from",
          "type": "address"
        },
        {
          "indexed": false,
          "internalType": "uint256",
          "name": "value",
          "type": "uint256"
        }
      ],
      "name": "Contributed",
      "type": "event"
    },
    {
      "anonymous": false,
      "inputs": [
        {
          "indexed": true,
          "internalType": "uint256",
          "name": "id",
          "type": "uint256"
        }
      ],
      "name": "Finalized",
      "type": "event"
    },
    {
      "anonymous": false,
      "inputs": [
        {
          "indexed": true,
          "internalType": "address",
          "name": "to",
          "type": "address"
        },
        {
          "indexed": false,
          "internalType": "uint256",
          "name": "value",
          "type": "uint256"
        }
      ],
      "name": "Refunded",
      "type": "event"
    },
    {
      "anonymous": false,
      "inputs": [
        {
          "indexed": true,
          "internalType": "uint256",
          "name": "id",
          "type": "uint256"
        },
        {
          "indexed": false,
          "internalType": "string",
          "name": "description",
          "type": "string"
        },
        {
          "indexed": false,
          "internalType": "uint256",
          "name": "amount",
          "type": "uint256"
        },
        {
          "indexed": false,
          "internalType": "address",
          "name": "recipient",
          "type": "address"
        }
      ],
      "name": "RequestCreated",
      "type": "event"
    },
    {
      "inputs": [
        {
          "internalType": "uint256",
          "name": "_id",
          "type": "uint256"
        }
      ],
      "name": "approveRequest",
      "outputs": [],
      "stateMutability": "nonpayable",
      "type": "function"
    },
    {
      "inputs": [],
      "name": "contribute",
      "outputs": [],
      "stateMutability": "payable",
      "type": "function"
    },
    {
      "inputs": [
        {
          "internalType": "address",
          "name": "",
          "type": "address"
        }
      ],
      "name": "contributions",
      "outputs": [
        {
          "internalType": "uint256",
          "name": "",
          "type": "uint256"
        }
      ],
      "stateMutability": "view",
      "type": "function"
    },
    {
      "inputs": [],
      "name": "contributorCount",
      "outputs": [
        {
          "internalType": "uint256",
          "name": "",
          "type": "uint256"
        }
      ],
      "stateMutability": "view",
      "type": "function"
    },
    {
      "inputs": [
        {
          "internalType": "string",
          "name": "_description",
          "type": "string"
        },
        {
          "internalType": "uint256",
          "name": "_amount",
          "type": "uint256"
        },
        {
          "internalType": "address payable",
          "name": "_recipient",
          "type": "address"
        }
      ],
      "name": "createRequest",
      "outputs": [],
      "stateMutability": "nonpayable",
      "type": "function"
    },
    {
      "inputs": [],
      "name": "deadlineTs",
      "outputs": [
        {
          "internalType": "uint64",
          "name": "",
          "type": "uint64"
        }
      ],
      "stateMutability": "view",
      "type": "function"
    },
    {
      "inputs": [
        {
          "internalType": "uint256",
          "name": "_id",
          "type": "uint256"
        }
      ],
      "name": "finalizeRequest",
      "outputs": [],
      "stateMutability": "nonpayable",
      "type": "function"
    },
    {
      "inputs": [
        {
          "internalType": "uint256",
          "name": "_id",
          "type": "uint256"
        }
      ],
      "name": "getRequest",
      "outputs": [
        {
          "internalType": "string",
          "name": "description",
          "type": "string"
        },
        {
          "internalType": "uint256",
          "name": "amount",
          "type": "uint256"
        },
        {
          "internalType": "address",
          "name": "recipient",
          "type": "address"
        },
        {
          "internalType": "uint256",
          "name": "approvalCount",
          "type": "uint256"
        },
        {
          "internalType": "bool",
          "name": "complete",
          "type": "bool"
        }
      ],
      "stateMutability": "view",
      "type": "function"
    },
    {
      "inputs": [],
      "name": "getSummary",
      "outputs": [
        {
          "internalType": "address",
          "name": "_owner",
          "type": "address"
        },
        {
          "internalType": "string",
          "name": "_title",
          "type": "string"
        },
        {
          "internalType": "uint256",
          "name": "_goalWei",
          "type": "uint256"
        },
        {
          "internalType": "uint64",
          "name": "_deadlineTs",
          "type": "uint64"
        },
        {
          "internalType": "string",
          "name": "_metaDataURI",
          "type": "string"
        },
        {
          "internalType": "uint256",
          "name": "_totalRaised",
          "type": "uint256"
        },
        {
          "internalType": "uint256",
          "name": "_contributorCount",
          "type": "uint256"
        },
        {
          "internalType": "uint256",
          "name": "_requestCount",
          "type": "uint256"
        }
      ],
      "stateMutability": "view",
      "type": "function"
    },
    {
      "inputs": [],
      "name": "goalMet",
      "outputs": [
        {
          "internalType": "bool",
          "name": "",
          "type": "bool"
        }
      ],
      "stateMutability": "view",
      "type": "function"
    },
    {
      "inputs": [],
      "name": "goalWei",
      "outputs": [
        {
          "internalType": "uint256",
          "name": "",
          "type": "uint256"
        }
      ],
      "stateMutability": "view",
      "type": "function"
    },
    {
      "inputs": [],
      "name": "isEnded",
      "outputs": [
        {
          "internalType": "bool",
          "name": "",
          "type": "bool"
        }
      ],
      "stateMutability": "view",
      "type": "function"
    },
    {
      "inputs": [],
      "name": "metaDataURI",
      "outputs": [
        {
          "internalType": "string",
          "name": "",
          "type": "string"
        }
      ],
      "stateMutability": "view",
      "type": "function"
    },
    {
      "inputs": [],
      "name": "owner",
      "outputs": [
        {
          "internalType": "address",
          "name": "",
          "type": "address"
        }
      ],
      "stateMutability": "view",
      "type": "function"
    },
    {
      "inputs": [],
      "name": "refund",
      "outputs": [],
      "stateMutability": "nonpayable",
      "type": "function"
    },
    {
      "inputs": [
        {
          "internalType": "uint256",
          "name": "",
          "type": "uint256"
        }
      ],
      "name": "requests",
      "outputs": [
        {
          "internalType": "string",
          "name": "description",
          "type": "string"
        },
        {
          "internalType": "uint256",
          "name": "amount",
          "type": "uint256"
        },
        {
          "internalType": "address payable",
          "name": "recipient",
          "type": "address"
        },
        {
          "internalType": "uint256",
          "name": "approvalCount",
          "type": "uint256"
        },
        {
          "internalType": "bool",
          "name": "complete",
          "type": "bool"
        }
      ],
      "stateMutability": "view",
      "type": "function"
    },
    {
      "inputs": [],
      "name": "title",
      "outputs": [
        {
          "internalType": "string",
          "name": "",
          "type": "string"
        }
      ],
      "stateMutability": "view",
      "type": "function"
    },
    {
      "inputs": [],
      "name": "totalRaised",
      "outputs": [
        {
          "internalType": "uint256",
          "name": "",
          "type": "uint256"
        }
      ],
      "stateMutability": "view",
      "type": "function"
    }
  ],
  "bytecode": "0x60a060405234801561000f575f5ffd5b506040516118e53803806118e583398101604081905261002e91610120565b60015f8190556001600160a01b03861660805261004b858261024e565b506003839055600480546001600160401b0319166001600160401b0384161790556002610078828261024e565b505050505050610308565b634e487b7160e01b5f52604160045260245ffd5b5f82601f8301126100a6575f5ffd5b81516001600160401b038111156100bf576100bf610083565b604051601f8201601f19908116603f011681016001600160401b03811182821017156100ed576100ed610083565b604052818152838201602001851015610104575f5ffd5b8160208501602083015e5f918101602001919091529392505050565b5f5f5f5f5f60a08688031215610134575f5ffd5b85516001600160a01b038116811461014a575f5ffd5b60208701519095506001600160401b03811115610165575f5ffd5b61017188828901610097565b60408801516060890151919650945090506001600160401b0381168114610196575f5ffd5b60808701519092506001600160401b038111156101b1575f5ffd5b6101bd88828901610097565b9150509295509295909350565b600181811c908216806101de57607f821691505b6020821081036101fc57634e487b7160e01b5f52602260045260245ffd5b50919050565b601f82111561024957805f5260205f20601f840160051c810160208510156102275750805b601f840160051c820191505b81811015610246575f8155600101610233565b50505b505050565b81516001600160401b0381111561026757610267610083565b61027b8161027584546101ca565b84610202565b6020601f8211600181146102ad575f83156102965750848201515b5f19600385901b1c1916600184901b178455610246565b5f84815260208120601f198516915b828110156102dc57878501518255602094850194600190920191016102bc565b50848210156102f957868401515f19600387901b60f8161c191681555b50505050600190811b01905550565b6080516115b761032e5f395f818161023d015281816106640152610b3d01526115b75ff3fe608060405260043610610105575f3560e01c8063a4fd6f5611610092578063c5c4744c11610062578063c5c4744c14610315578063d15f2d601461032a578063d7bb99ba1461033f578063d7d1bbdb14610347578063ecfd892814610366575f5ffd5b8063a4fd6f5614610277578063b8087ac0146102a4578063be1e9698146102bd578063c58343ef146102f6575f5ffd5b8063590e1ae3116100d8578063590e1ae3146101b55780637e0a930f146101c957806381d12c58146101dd5780638a9cfd551461020d5780638da5cb5b1461022c575f5ffd5b806303441006146101095780634051ddac1461012a57806342e94c901461015b5780634a79d50c14610194575b5f5ffd5b348015610114575f5ffd5b506101286101233660046110ef565b61037b565b005b348015610135575f5ffd5b5061013e610658565b604051610152989796959493929190611134565b60405180910390f35b348015610166575f5ffd5b506101866101753660046111b5565b60076020525f908152604090205481565b604051908152602001610152565b34801561019f575f5ffd5b506101a86107da565b60405161015291906111d7565b3480156101c0575f5ffd5b50610128610866565b3480156101d4575f5ffd5b506101a8610a50565b3480156101e8575f5ffd5b506101fc6101f73660046110ef565b610a5d565b6040516101529594939291906111e9565b348015610218575f5ffd5b5061012861022736600461124e565b610b32565b348015610237575f5ffd5b5061025f7f000000000000000000000000000000000000000000000000000000000000000081565b6040516001600160a01b039091168152602001610152565b348015610282575f5ffd5b5060045467ffffffffffffffff164210155b6040519015158152602001610152565b3480156102af575f5ffd5b506003546005541015610294565b3480156102c8575f5ffd5b506004546102dd9067ffffffffffffffff1681565b60405167ffffffffffffffff9091168152602001610152565b348015610301575f5ffd5b506101fc6103103660046110ef565b610cc7565b348015610320575f5ffd5b5061018660055481565b348015610335575f5ffd5b5061018660035481565b610128610dde565b348015610352575f5ffd5b506101286103613660046110ef565b610f25565b348015610371575f5ffd5b5061018660065481565b6103836110c7565b60085481106103ad5760405162461bcd60e51b81526004016103a490611317565b60405180910390fd5b60045467ffffffffffffffff1642101580156103cd575060035460055410155b61043f5760405162461bcd60e51b815260206004820152603a60248201527f43616d706169676e206d757374206265207375636365737366756c20616e642060448201527f656e64656420746f2066696e616c697a6520726571756573747300000000000060648201526084016103a4565b5f6008828154811061045357610453611343565b5f9182526020909120600690910201600481015490915060ff161561048a5760405162461bcd60e51b81526004016103a490611357565b47816001015411156104f25760405162461bcd60e51b815260206004820152602b60248201527f4e6f7420656e6f7567682062616c616e636520746f2066696e616c697a65207460448201526a1a1a5cc81c995c5d595cdd60aa1b60648201526084016103a4565b600260055461050191906113ad565b8160030154116105695760405162461bcd60e51b815260206004820152602d60248201527f4e6f7420656e6f75676820617070726f76616c7320746f2066696e616c697a6560448201526c081d1a1a5cc81c995c5d595cdd609a1b60648201526084016103a4565b60048101805460ff191660019081179091556002820154908201546040515f926001600160a01b031691908381818185875af1925050503d805f81146105ca576040519150601f19603f3d011682016040523d82523d5f602084013e6105cf565b606091505b50509050806106205760405162461bcd60e51b815260206004820152601c60248201527f5472616e7366657220746f20726563697069656e74206661696c65640000000060448201526064016103a4565b60405183907f839cf22e1ba87ce2f5b9bbf46cf0175a09eed52febdfaac8852478e68203c763905f90a2505061065560015f55565b50565b5f60605f5f60605f5f5f7f0000000000000000000000000000000000000000000000000000000000000000600160035460045f9054906101000a900467ffffffffffffffff1660026005546006546008805490508680546106b8906113cc565b80601f01602080910402602001604051908101604052809291908181526020018280546106e4906113cc565b801561072f5780601f106107065761010080835404028352916020019161072f565b820191905f5260205f20905b81548152906001019060200180831161071257829003601f168201915b50505050509650838054610742906113cc565b80601f016020809104026020016040519081016040528092919081815260200182805461076e906113cc565b80156107b95780601f10610790576101008083540402835291602001916107b9565b820191905f5260205f20905b81548152906001019060200180831161079c57829003601f168201915b50505050509350975097509750975097509750975097509091929394959697565b600180546107e7906113cc565b80601f0160208091040260200160405190810160405280929190818152602001828054610813906113cc565b801561085e5780601f106108355761010080835404028352916020019161085e565b820191905f5260205f20905b81548152906001019060200180831161084157829003601f168201915b505050505081565b61086e6110c7565b60045467ffffffffffffffff164210156108ca5760405162461bcd60e51b815260206004820152601960248201527f43616d706169676e206973207374696c6c206f6e676f696e670000000000000060448201526064016103a4565b600354600554106109155760405162461bcd60e51b815260206004820152601560248201527410d85b5c185a59db8819dbd85b081dd85cc81b595d605a1b60448201526064016103a4565b335f90815260076020526040902054806109715760405162461bcd60e51b815260206004820152601a60248201527f4e6f20636f6e747269627574696f6e7320746f20726566756e6400000000000060448201526064016103a4565b335f818152600760205260408082208290555190919083908381818185875af1925050503d805f81146109bf576040519150601f19603f3d011682016040523d82523d5f602084013e6109c4565b606091505b5050905080610a0e5760405162461bcd60e51b81526020600482015260166024820152751499599d5b99081d1c985b9cd9995c8819985a5b195960521b60448201526064016103a4565b60405182815233907fd7dee2702d63ad89917b6a4da9981c90c4d24f8c2bdfd64c604ecae57d8d06519060200160405180910390a25050610a4e60015f55565b565b600280546107e7906113cc565b60088181548110610a6c575f80fd5b905f5260205f2090600602015f91509050805f018054610a8b906113cc565b80601f0160208091040260200160405190810160405280929190818152602001828054610ab7906113cc565b8015610b025780601f10610ad957610100808354040283529160200191610b02565b820191905f5260205f20905b815481529060010190602001808311610ae557829003601f168201915b50505050600183015460028401546003850154600490950154939491936001600160a01b03909116925060ff1685565b336001600160a01b037f00000000000000000000000000000000000000000000000000000000000000001614610bb45760405162461bcd60e51b815260206004820152602160248201527f4f6e6c79206f776e65722063616e2063616c6c20746869732066756e6374696f6044820152603760f91b60648201526084016103a4565b5f8211610c115760405162461bcd60e51b815260206004820152602560248201527f5265717565737420616d6f756e74206d75737420626520677265617465722074604482015264068616e20360dc1b60648201526084016103a4565b6008805460019081018083555f928352610c2b9190611404565b90505f60088281548110610c4157610c41611343565b5f9182526020909120600690910201905080610c5d8682611469565b50600181018490556002810180546001600160a01b0319166001600160a01b03851617905560405182907ff7365309cb3a1c4835d32acd2153ebf718723e270daad5bb2aac6dd47564583b90610cb890889088908890611524565b60405180910390a25050505050565b60605f5f5f5f6008805490508610610cf15760405162461bcd60e51b81526004016103a490611317565b5f60088781548110610d0557610d05611343565b5f91825260209091206006909102016001810154600282015460038301546004840154845494955085946001600160a01b039093169260ff909116908590610d4c906113cc565b80601f0160208091040260200160405190810160405280929190818152602001828054610d78906113cc565b8015610dc35780601f10610d9a57610100808354040283529160200191610dc3565b820191905f5260205f20905b815481529060010190602001808311610da657829003601f168201915b50505050509450955095509550955095505091939590929450565b60045467ffffffffffffffff164210610e2e5760405162461bcd60e51b815260206004820152601260248201527110d85b5c185a59db881a185cc8195b99195960721b60448201526064016103a4565b5f3411610e895760405162461bcd60e51b815260206004820152602360248201527f436f6e747269627574696f6e206d75737420626520677265617465722074686160448201526206e20360ec1b60648201526084016103a4565b335f908152600760205260408120549003610eb35760068054905f610ead83611556565b91905055505b335f9081526007602052604081208054349290610ed190849061156e565b925050819055503460055f828254610ee9919061156e565b909155505060405134815233907f62722348256371b5147820d6cad90c40fd2da1ccee18c3ed52c0bca5a61dbbab9060200160405180910390a2565b6008548110610f465760405162461bcd60e51b81526004016103a490611317565b5f60088281548110610f5a57610f5a611343565b5f9182526020808320338452600790915260409092205460069091029091019150610fc75760405162461bcd60e51b815260206004820152601d60248201527f4f6e6c7920636f6e7472696275746f72732063616e20617070726f766500000060448201526064016103a4565b335f90815260058201602052604090205460ff16156110375760405162461bcd60e51b815260206004820152602660248201527f596f75206861766520616c726561647920617070726f76656420746869732072604482015265195c5d595cdd60d21b60648201526084016103a4565b600481015460ff161561105c5760405162461bcd60e51b81526004016103a490611357565b335f8181526005830160209081526040808320805460ff1916600117905560078252918290205460038501805482019055915182815291929185917f7060996319a743911fa38fcb4f926382972b1bcd6abeea1bd65adeb620d5dfdf910160405180910390a3505050565b60025f54036110e957604051633ee5aeb560e01b815260040160405180910390fd5b60025f55565b5f602082840312156110ff575f5ffd5b5035919050565b5f81518084528060208401602086015e5f602082860101526020601f19601f83011685010191505092915050565b6001600160a01b0389168152610100602082018190525f906111589083018a611106565b88604084015267ffffffffffffffff8816606084015282810360808401526111808188611106565b60a0840196909652505060c081019290925260e09091015295945050505050565b6001600160a01b0381168114610655575f5ffd5b5f602082840312156111c5575f5ffd5b81356111d0816111a1565b9392505050565b602081525f6111d06020830184611106565b60a081525f6111fb60a0830188611106565b6020830196909652506001600160a01b0393909316604084015260608301919091521515608090910152919050565b634e487b7160e01b5f52604160045260245ffd5b8035611249816111a1565b919050565b5f5f5f60608486031215611260575f5ffd5b833567ffffffffffffffff811115611276575f5ffd5b8401601f81018613611286575f5ffd5b803567ffffffffffffffff8111156112a0576112a061122a565b604051601f8201601f19908116603f0116810167ffffffffffffffff811182821017156112cf576112cf61122a565b6040528181528282016020018810156112e6575f5ffd5b816020840160208301375f60209282018301529450850135925061130e90506040850161123e565b90509250925092565b602080825260129082015271125b9d985b1a59081c995c5d595cdd08125160721b604082015260600190565b634e487b7160e01b5f52603260045260245ffd5b60208082526022908201527f526571756573742068617320616c7265616479206265656e2066696e616c697a604082015261195960f21b606082015260800190565b634e487b7160e01b5f52601160045260245ffd5b5f826113c757634e487b7160e01b5f52601260045260245ffd5b500490565b600181811c908216806113e057607f821691505b6020821081036113fe57634e487b7160e01b5f52602260045260245ffd5b50919050565b8181038181111561141757611417611399565b92915050565b601f82111561146457805f5260205f20601f840160051c810160208510156114425750805b601f840160051c820191505b81811015611461575f815560010161144e565b50505b505050565b815167ffffffffffffffff8111156114835761148361122a565b6114978161149184546113cc565b8461141d565b6020601f8211600181146114c9575f83156114b25750848201515b5f19600385901b1c1916600184901b178455611461565b5f84815260208120601f198516915b828110156114f857878501518255602094850194600190920191016114d8565b508482101561151557868401515f19600387901b60f8161c191681555b50505050600190811b01905550565b606081525f6115366060830186611106565b6020830194909452506001600160a01b0391909116604090910152919050565b5f6001820161156757611567611399565b5060010190565b808201808211156114175761141761139956fea2646970667358221220e29f800d215c84462fd0e5eab014b985e2b88b6247e9ae250ab67c401a25cffe64736f6c634300081c0033",
  "linkReferences": {},
  "deployedLinkReferences": {},
  "immutableReferences": {
    "217": [
      {
        "length": 32,
        "start": 573
      },
      {
        "length": 32,
        "start": 1636
      },
      {
        "length": 32,
        "start": 2877
      }
    ]
  },
  "inputSourceName": "project/contracts/Campaign.sol",
  "buildInfoId": "solc-0_8_28-6a755e9992ec0549c2fba8f35c15ee75b4ab252a"
}